[
  [
    [
      "write",
      "{\"jsonrpc\":\"2.0\",\"method\":\"server.version\",\"params\":[\"\",\"1.4\"],\"id\":0}\n"
    ],
    [
      "read",
      "{\"jsonrpc\": \"2.0\", \"result\": [\"ElectrumX 1.9.5\", \"1.4\"], \"id\": 0}\n"
    ],
    [
      "write",
      "{\"jsonrpc\":\"2.0\",\"method\":\"blockchain.scripthash.get_history\",\"params\":[\"fcb1c73c524dea71b3853a270e5b22618806929a069c7e7dc2e164c68d02c65d\"],\"id\":1}\n"
    ],
    [
      "read",
      "{\"jsonrpc\": \"2.0\", \"result\": [{\"tx_hash\": \"e77b0940a06801fb661b254bf6f8b9429656153681dd954c6ed9438da1fba780\", \"height\": 1257236}, {\"tx_hash\": \"ad59b69d314fbee1af7e9b9373ad270bd8118bfe1d55aea5c6d38962918e5a89\", \"height\": 1257241}], \"id\": 1}\n"
    ],
    [
      "write",
      "{\"jsonrpc\":\"2.0\",\"method\":\"blockchain.transaction.get\",\"params\":[\"e77b0940a06801fb661b254bf6f8b9429656153681dd954c6ed9438da1fba780\",true],\"id\":2}\n"
    ],
    [
      "read",
      "{\"jsonrpc\": \"2.0\", \"result\": {\"hex\": \"02000000019cdf9228b89f2126edde8f105760845c30bdf685163b143a3361ee57c798d74b000000006b483045022100a88380256e0d2c8c8908a3ecd307723da65b14157b66ce59728e12306a1a440d02202cb911b3ca0cf10393d2aed3a45a3682e5bf9a1bdf33e438b527221aa3a622c741210394174c4a6f09e56b1091b70b43834ce48e0f769dd8cb0b419dc205688acf606dffffffff02e051bb0d000000001976a914538286f6604734b111248dd156b446d77c1ae3b988ac0000000000000000336a3143704d3115f8cefea84074c516349d6b38b4bd47d6d2e8bf44b7f3f4172735e1f8d8e4b52f670815003619021bb07a508500000000\", \"txid\": \"e77b0940a06801fb661b254bf6f8b9429656153681dd954c6ed9438da1fba780\", \"hash\": \"e77b0940a06801fb661b254bf6f8b9429656153681dd954c6ed9438da1fba780\", \"size\": 252, \"version\": 2, \"locktime\": 0, \"vin\": [{\"txid\": \"4bd798c757ee61333a143b1685f6bd305c846057108fdeed26219fb82892df9c\", \"vout\": 0, \"scriptSig\": {\"asm\": \"3045022100a88380256e0d2c8c8908a3ecd307723da65b14157b66ce59728e12306a1a440d02202cb911b3ca0cf10393d2aed3a45a3682e5bf9a1bdf33e438b527221aa3a622c7[ALL|FORKID] 0394174c4a6f09e56b1091b70b43834ce48e0f769dd8cb0b419dc205688acf606d\", \"hex\": \"483045022100a88380256e0d2c8c8908a3ecd307723da65b14157b66ce59728e12306a1a440d02202cb911b3ca0cf10393d2aed3a45a3682e5bf9a1bdf33e438b527221aa3a622c741210394174c4a6f09e56b1091b70b43834ce48e0f769dd8cb0b419dc205688acf606d\"}, \"sequence\": 4294967295}], \"vout\": [{\"value\": 2.3038, \"n\": 0, \"scriptPubKey\": {\"asm\": \"OP_DUP OP_HASH160 538286f6604734b111248dd156b446d77c1ae3b9 OP_EQUALVERIFY OP_CHECKSIG\", \"hex\": \"76a914538286f6604734b111248dd156b446d77c1ae3b988ac\", \"reqSigs\": 1, \"type\": \"pubkeyhash\", \"addresses\": [\"bchtest:qpfc9phkvprnfvg3yjxaz445gmthcxhrhy4fssz86y\"]}}, {\"value\": 0.0, \"n\": 1, \"scriptPubKey\": {\"asm\": \"OP_RETURN 43704d3115f8cefea84074c516349d6b38b4bd47d6d2e8bf44b7f3f4172735e1f8d8e4b52f670815003619021bb07a5085\", \"hex\": \"6a3143704d3115f8cefea84074c516349d6b38b4bd47d6d2e8bf44b7f3f4172735e1f8d8e4b52f670815003619021bb07a5085\", \"type\": \"nulldata\"}}], \"blockhash\": \"000000000000005521747e09cd87d2ee4e990a4d8ccbce742442fa2c3977c01f\", \"confirmations\": 37587, \"time\": 1536991803, \"blocktime\": 1536991803}, \"id\": 2}\n"
    ],
    [
      "write",
      "{\"jsonrpc\":\"2.0\",\"method\":\"blockchain.transaction.get\",\"params\":[\"ad59b69d314fbee1af7e9b9373ad270bd8118bfe1d55aea5c6d38962918e5a89\",true],\"id\":3}\n"
    ],
    [
      "read",
      "{\"jsonrpc\": \"2.0\", \"result\": {\"hex\": \"020000000180a7fba18d43d96e4c95dd813615569642b9f8f64b251b66fb0168a040097be7000000006b483045022100c994de0fb48cf25d8070333429f02d39b2ced598ea68ec44963adc53c1da39b5022047fe14757dcfd3cfc28b1d4514881d7f1281e0378115c98e69872e4c632aba44412103aa12ae144eaedfcdcc5347668feeb29fbc53889683a8d7ef487440886060c887ffffffff02a032bb0d000000001976a91491c6d248e32d9ae0e47c3fdbea964461268ca2c188ac0000000000000000336a3143704d3115f90011a32bb59176b5740a8a3e13d9d4f6106dcdcdcc4cd53ec44f2a05a5bfa89f42e1009379011b10c9974b00000000\", \"txid\": \"ad59b69d314fbee1af7e9b9373ad270bd8118bfe1d55aea5c6d38962918e5a89\", \"hash\": \"ad59b69d314fbee1af7e9b9373ad270bd8118bfe1d55aea5c6d38962918e5a89\", \"size\": 252, \"version\": 2, \"locktime\": 0, \"vin\": [{\"txid\": \"e77b0940a06801fb661b254bf6f8b9429656153681dd954c6ed9438da1fba780\", \"vout\": 0, \"scriptSig\": {\"asm\": \"3045022100c994de0fb48cf25d8070333429f02d39b2ced598ea68ec44963adc53c1da39b5022047fe14757dcfd3cfc28b1d4514881d7f1281e0378115c98e69872e4c632aba44[ALL|FORKID] 03aa12ae144eaedfcdcc5347668feeb29fbc53889683a8d7ef487440886060c887\", \"hex\": \"483045022100c994de0fb48cf25d8070333429f02d39b2ced598ea68ec44963adc53c1da39b5022047fe14757dcfd3cfc28b1d4514881d7f1281e0378115c98e69872e4c632aba44412103aa12ae144eaedfcdcc5347668feeb29fbc53889683a8d7ef487440886060c887\"}, \"sequence\": 4294967295}], \"vout\": [{\"value\": 2.30372, \"n\": 0, \"scriptPubKey\": {\"asm\": \"OP_DUP OP_HASH160 91c6d248e32d9ae0e47c3fdbea964461268ca2c1 OP_EQUALVERIFY OP_CHECKSIG\", \"hex\": \"76a91491c6d248e32d9ae0e47c3fdbea964461268ca2c188ac\", \"reqSigs\": 1, \"type\": \"pubkeyhash\", \"addresses\": [\"bchtest:qzgud5jguvke4c8y0slah65kg3sjdr9zcy87mh7rgc\"]}}, {\"value\": 0.0, \"n\": 1, \"scriptPubKey\": {\"asm\": \"OP_RETURN 43704d3115f90011a32bb59176b5740a8a3e13d9d4f6106dcdcdcc4cd53ec44f2a05a5bfa89f42e1009379011b10c9974b\", \"hex\": \"6a3143704d3115f90011a32bb59176b5740a8a3e13d9d4f6106dcdcdcc4cd53ec44f2a05a5bfa89f42e1009379011b10c9974b\", \"type\": \"nulldata\"}}], \"blockhash\": \"0000000000017b0ca14340305f2f5adb4bf0e0fd86b177c26ee41d4664fd3b5a\", \"confirmations\": 37582, \"time\": 1536996720, \"blocktime\": 1536996720}, \"id\": 3}\n"
    ]
  ]
]