[
  [
    [
      "write",
      "{\"jsonrpc\":\"2.0\",\"method\":\"server.version\",\"params\":[\"\",\"1.4\"],\"id\":0}\n"
    ],
    [
      "read",
      "{\"jsonrpc\": \"2.0\", \"result\": [\"ElectrumX 1.9.5\", \"1.4\"], \"id\": 0}\n"
    ],
    [
      "write",
      "{\"jsonrpc\":\"2.0\",\"method\":\"blockchain.scripthash.get_history\",\"params\":[\"7c4cf4eaee9849017c372367da2f864535b906a35689c4e38c78752ad38d29dc\"],\"id\":1}\n"
    ],
    [
      "read",
      "{\"jsonrpc\": \"2.0\", \"result\": [{\"tx_hash\": \"c9d6175077d340dcd21a9d425ff5881ef4d99053e1240771ea2626985643ef03\", \"height\": 547935}, {\"tx_hash\": \"9ac80155300f247e864d05345d7df3aeae5b9bb1a58ad29ecd6bc4e41c08e68c\", \"height\": 547935}, {\"tx_hash\": \"9eb5b78fee699affdc49c2081c4a0ae69bae23ec6739cec02c4f4ab02f8cca07\", \"height\": 547935}, {\"tx_hash\": \"3dbbcf653dbb93c5670af984884e50f70bd55fb040ff582b7e9a83fece7deaa9\", \"height\": 547935}], \"id\": 1}\n"
    ],
    [
      "write",
      "{\"jsonrpc\":\"2.0\",\"method\":\"blockchain.transaction.get\",\"params\":[\"c9d6175077d340dcd21a9d425ff5881ef4d99053e1240771ea2626985643ef03\",true],\"id\":2}\n"
    ],
    [
      "read",
      "{\"jsonrpc\": \"2.0\", \"result\": {\"hex\": \"0100000001a86e83d9a24f472dc2a8bd16fa07788459b437f02f3c267378bbbc54077ffd02010000006b483045022100ebd5e2da558ea2ee46fbae97e702d92e33a285d7a9584d2cca4bf7f2755d7e1002203a352dd19d55cebd6910f33c10068d8ba01384b262b0831eb35e893aa43dba6a412103c44de8ecde84ac254ba70a2352f09c7cd3424e580237f64fe67c0fe8c5ec84e9ffffffff0250c30000000000001976a9148b80501d56d20c1bf8aa94f25ce9eafade545e0e88ac926d0c00000000001976a914e0858a040ddbc9be9c3ee76116217703c1811f3988ac00000000\", \"txid\": \"c9d6175077d340dcd21a9d425ff5881ef4d99053e1240771ea2626985643ef03\", \"hash\": \"c9d6175077d340dcd21a9d425ff5881ef4d99053e1240771ea2626985643ef03\", \"size\": 226, \"version\": 1, \"locktime\": 0, \"vin\": [{\"txid\": \"02fd7f0754bcbb7873263c2ff037b459847807fa16bda8c22d474fa2d9836ea8\", \"vout\": 1, \"scriptSig\": {\"asm\": \"3045022100ebd5e2da558ea2ee46fbae97e702d92e33a285d7a9584d2cca4bf7f2755d7e1002203a352dd19d55cebd6910f33c10068d8ba01384b262b0831eb35e893aa43dba6a[ALL|FORKID] 03c44de8ecde84ac254ba70a2352f09c7cd3424e580237f64fe67c0fe8c5ec84e9\", \"hex\": \"483045022100ebd5e2da558ea2ee46fbae97e702d92e33a285d7a9584d2cca4bf7f2755d7e1002203a352dd19d55cebd6910f33c10068d8ba01384b262b0831eb35e893aa43dba6a412103c44de8ecde84ac254ba70a2352f09c7cd3424e580237f64fe67c0fe8c5ec84e9\"}, \"sequence\": 4294967295}], \"vout\": [{\"value\": 0.0005, \"n\": 0, \"scriptPubKey\": {\"asm\": \"OP_DUP OP_HASH160 8b80501d56d20c1bf8aa94f25ce9eafade545e0e OP_EQUALVERIFY OP_CHECKSIG\", \"hex\": \"76a9148b80501d56d20c1bf8aa94f25ce9eafade545e0e88ac\", \"reqSigs\": 1, \"type\": \"pubkeyhash\", \"addresses\": [\"bitcoincash:qz9cq5qa2mfqcxlc4220yh8fatadu4z7pcewq0ns8y\"]}}, {\"value\": 0.00814482, \"n\": 1, \"scriptPubKey\": {\"asm\": \"OP_DUP OP_HASH160 e0858a040ddbc9be9c3ee76116217703c1811f39 OP_EQUALVERIFY OP_CHECKSIG\", \"hex\": \"76a914e0858a040ddbc9be9c3ee76116217703c1811f3988ac\", \"reqSigs\": 1, \"type\": \"pubkeyhash\", \"addresses\": [\"bitcoincash:qrsgtzsyphdun05u8mnkz93pwupurqgl8ytfavtxze\"]}}], \"blockhash\": \"00000000000000000034d8de65ada5fa76639ac43fabb754b9d38d562bf3c181\", \"confirmations\": 26990, \"time\": 1536992106, \"blocktime\": 1536992106}, \"id\": 2}\n"
    ],
    [
      "write",
      "{\"jsonrpc\":\"2.0\",\"method\":\"blockchain.transaction.get\",\"params\":[\"9ac80155300f247e864d05345d7df3aeae5b9bb1a58ad29ecd6bc4e41c08e68c\",true],\"id\":3}\n"
    ],
    [
      "read",
      "{\"jsonrpc\": \"2.0\", \"result\": {\"hex\": \"010000000103ef4356982626ea710724e15390d9f41e88f55f429d1ad2dc40d3775017d6c9010000006b48304502210096242bec5b158bfb51528bcfbfa716e7edf65a12af3ab86d2f2706d26d2e1acd022001a2726e497f172097f2acea0bb6c47c6808f689838119eecfb8ec4e71c06d8f4121022537d601fb92fa8535f0f33b4d8b2f104a13cc9aec9f8880ea110f71a215d720ffffffff0250c30000000000001976a9148b80501d56d20c1bf8aa94f25ce9eafade545e0e88ac7ea80b00000000001976a9143580c7b7fea0c04da2cc82a70d9d52f4ff91486588ac00000000\", \"txid\": \"9ac80155300f247e864d05345d7df3aeae5b9bb1a58ad29ecd6bc4e41c08e68c\", \"hash\": \"9ac80155300f247e864d05345d7df3aeae5b9bb1a58ad29ecd6bc4e41c08e68c\", \"size\": 226, \"version\": 1, \"locktime\": 0, \"vin\": [{\"txid\": \"c9d6175077d340dcd21a9d425ff5881ef4d99053e1240771ea2626985643ef03\", \"vout\": 1, \"scriptSig\": {\"asm\": \"304502210096242bec5b158bfb51528bcfbfa716e7edf65a12af3ab86d2f2706d26d2e1acd022001a2726e497f172097f2acea0bb6c47c6808f689838119eecfb8ec4e71c06d8f[ALL|FORKID] 022537d601fb92fa8535f0f33b4d8b2f104a13cc9aec9f8880ea110f71a215d720\", \"hex\": \"48304502210096242bec5b158bfb51528bcfbfa716e7edf65a12af3ab86d2f2706d26d2e1acd022001a2726e497f172097f2acea0bb6c47c6808f689838119eecfb8ec4e71c06d8f4121022537d601fb92fa8535f0f33b4d8b2f104a13cc9aec9f8880ea110f71a215d720\"}, \"sequence\": 4294967295}], \"vout\": [{\"value\": 0.0005, \"n\": 0, \"scriptPubKey\": {\"asm\": \"OP_DUP OP_HASH160 8b80501d56d20c1bf8aa94f25ce9eafade545e0e OP_EQUALVERIFY OP_CHECKSIG\", \"hex\": \"76a9148b80501d56d20c1bf8aa94f25ce9eafade545e0e88ac\", \"reqSigs\": 1, \"type\": \"pubkeyhash\", \"addresses\": [\"bitcoincash:qz9cq5qa2mfqcxlc4220yh8fatadu4z7pcewq0ns8y\"]}}, {\"value\": 0.0076403, \"n\": 1, \"scriptPubKey\": {\"asm\": \"OP_DUP OP_HASH160 3580c7b7fea0c04da2cc82a70d9d52f4ff914865 OP_EQUALVERIFY OP_CHECKSIG\", \"hex\": \"76a9143580c7b7fea0c04da2cc82a70d9d52f4ff91486588ac\", \"reqSigs\": 1, \"type\": \"pubkeyhash\", \"addresses\": [\"bitcoincash:qq6cp3ahl6svqndzejp2wrva2t60ly2gv5gl8ds6pp\"]}}], \"blockhash\": \"00000000000000000034d8de65ada5fa76639ac43fabb754b9d38d562bf3c181\", \"confirmations\": 26990, \"time\": 1536992106, \"blocktime\": 1536992106}, \"id\": 3}\n"
    ],
    [
      "write",
      "{\"jsonrpc\":\"2.0\",\"method\":\"blockchain.transaction.get\",\"params\":[\"9eb5b78fee699affdc49c2081c4a0ae69bae23ec6739cec02c4f4ab02f8cca07\",true],\"id\":4}\n"
    ],
    [
      "read",
      "{\"jsonrpc\": \"2.0\", \"result\": {\"hex\": \"02000000028ce6081ce4c46bcd9ed28aa5b19b5baeaef37d5d34054d867e240f305501c89a000000008a47304402202b0d5eda5bf663ac397cba014e3e25539b68c32dead310090291abbdf07a0f54022073ab34567ef6874eb5eb893aad7a8f3988c6b6cc8b54737761cf2ac448408c114141046a1e33f418f86424f59a9a0f5188b0a4f0596316e9d7ec42d24cd3714d46c639269b57f3947b862a4ed755c97a08aa84dd9760c108eb2aba969707a61a0b1fb4ffffffffe53720bfb0038e213f55f105cc576db7550c64b56d1000f493af7beedbfb518a020000008a47304402203985638e432206f94e225a860df06501a703c3596a86668436dfbe53a8c64fc702205f37a8e046db3f8d53b321a4a811dab43f20885749bb253fbf3825d04e75f2e94141040baa4271a82c5f1a09a5ea63d763697ca0545b6049c4dd8e8d099dd91f2da10eb11e829000a82047ac56969fb582433067a21c3171e569d1832c34fdd793cfc8ffffffff03cc130c00000000001976a914e0858a040ddbc9be9c3ee76116217703c1811f3988ac0000000000000000226a2053b0bfd5701bfd9f2d39307f8229eb9eb7d68e24be21abbd57887dc8927f2171b230530c000000001976a9148b80536aa3c460258cda834b86a46787c9a2b0bf88ac00000000\", \"txid\": \"9eb5b78fee699affdc49c2081c4a0ae69bae23ec6739cec02c4f4ab02f8cca07\", \"hash\": \"9eb5b78fee699affdc49c2081c4a0ae69bae23ec6739cec02c4f4ab02f8cca07\", \"size\": 479, \"version\": 2, \"locktime\": 0, \"vin\": [{\"txid\": \"9ac80155300f247e864d05345d7df3aeae5b9bb1a58ad29ecd6bc4e41c08e68c\", \"vout\": 0, \"scriptSig\": {\"asm\": \"304402202b0d5eda5bf663ac397cba014e3e25539b68c32dead310090291abbdf07a0f54022073ab34567ef6874eb5eb893aad7a8f3988c6b6cc8b54737761cf2ac448408c11[ALL|FORKID] 046a1e33f418f86424f59a9a0f5188b0a4f0596316e9d7ec42d24cd3714d46c639269b57f3947b862a4ed755c97a08aa84dd9760c108eb2aba969707a61a0b1fb4\", \"hex\": \"47304402202b0d5eda5bf663ac397cba014e3e25539b68c32dead310090291abbdf07a0f54022073ab34567ef6874eb5eb893aad7a8f3988c6b6cc8b54737761cf2ac448408c114141046a1e33f418f86424f59a9a0f5188b0a4f0596316e9d7ec42d24cd3714d46c639269b57f3947b862a4ed755c97a08aa84dd9760c108eb2aba969707a61a0b1fb4\"}, \"sequence\": 4294967295}, {\"txid\": \"8a51fbdbee7baf93f400106db5640c55b76d57cc05f1553f218e03b0bf2037e5\", \"vout\": 2, \"scriptSig\": {\"asm\": \"304402203985638e432206f94e225a860df06501a703c3596a86668436dfbe53a8c64fc702205f37a8e046db3f8d53b321a4a811dab43f20885749bb253fbf3825d04e75f2e9[ALL|FORKID] 040baa4271a82c5f1a09a5ea63d763697ca0545b6049c4dd8e8d099dd91f2da10eb11e829000a82047ac56969fb582433067a21c3171e569d1832c34fdd793cfc8\", \"hex\": \"47304402203985638e432206f94e225a860df06501a703c3596a86668436dfbe53a8c64fc702205f37a8e046db3f8d53b321a4a811dab43f20885749bb253fbf3825d04e75f2e94141040baa4271a82c5f1a09a5ea63d763697ca0545b6049c4dd8e8d099dd91f2da10eb11e829000a82047ac56969fb582433067a21c3171e569d1832c34fdd793cfc8\"}, \"sequence\": 4294967295}], \"vout\": [{\"value\": 0.007915, \"n\": 0, \"scriptPubKey\": {\"asm\": \"OP_DUP OP_HASH160 e0858a040ddbc9be9c3ee76116217703c1811f39 OP_EQUALVERIFY OP_CHECKSIG\", \"hex\": \"76a914e0858a040ddbc9be9c3ee76116217703c1811f3988ac\", \"reqSigs\": 1, \"type\": \"pubkeyhash\", \"addresses\": [\"bitcoincash:qrsgtzsyphdun05u8mnkz93pwupurqgl8ytfavtxze\"]}}, {\"value\": 0.0, \"n\": 1, \"scriptPubKey\": {\"asm\": \"OP_RETURN 53b0bfd5701bfd9f2d39307f8229eb9eb7d68e24be21abbd57887dc8927f2171\", \"hex\": \"6a2053b0bfd5701bfd9f2d39307f8229eb9eb7d68e24be21abbd57887dc8927f2171\", \"type\": \"nulldata\"}}, {\"value\": 2.06778546, \"n\": 2, \"scriptPubKey\": {\"asm\": \"OP_DUP OP_HASH160 8b80536aa3c460258cda834b86a46787c9a2b0bf OP_EQUALVERIFY OP_CHECKSIG\", \"hex\": \"76a9148b80536aa3c460258cda834b86a46787c9a2b0bf88ac\", \"reqSigs\": 1, \"type\": \"pubkeyhash\", \"addresses\": [\"bitcoincash:qz9cq5m250zxqfvvm2p5hp4yv7rung4shukgcguxjd\"]}}], \"blockhash\": \"00000000000000000034d8de65ada5fa76639ac43fabb754b9d38d562bf3c181\", \"confirmations\": 26990, \"time\": 1536992106, \"blocktime\": 1536992106}, \"id\": 4}\n"
    ],
    [
      "write",
      "{\"jsonrpc\":\"2.0\",\"method\":\"blockchain.transaction.get\",\"params\":[\"3dbbcf653dbb93c5670af984884e50f70bd55fb040ff582b7e9a83fece7deaa9\",true],\"id\":5}\n"
    ],
    [
      "read",
      "{\"jsonrpc\": \"2.0\", \"result\": {\"hex\": \"010000000107ca8c2fb04a4f2cc0ce3967ec23ae9be60a4a1c08c249dcff9a69ee8fb7b59e000000006a47304402201ce7d86f751982ca03ec6958cb476ae19873eb891ddee9bdd01a3e2ccc078e1202204066dbffa8d5873610ab0b71ecebc7c23611195ea2c1867d120daea3cf56feb64121022537d601fb92fa8535f0f33b4d8b2f104a13cc9aec9f8880ea110f71a215d720ffffffff0250c30000000000001976a9148b80501d56d20c1bf8aa94f25ce9eafade545e0e88acb84e0b00000000001976a914b9d148701252f4e28c7e5b8f645b7fb7fb4dba8c88ac00000000\", \"txid\": \"3dbbcf653dbb93c5670af984884e50f70bd55fb040ff582b7e9a83fece7deaa9\", \"hash\": \"3dbbcf653dbb93c5670af984884e50f70bd55fb040ff582b7e9a83fece7deaa9\", \"size\": 225, \"version\": 1, \"locktime\": 0, \"vin\": [{\"txid\": \"9eb5b78fee699affdc49c2081c4a0ae69bae23ec6739cec02c4f4ab02f8cca07\", \"vout\": 0, \"scriptSig\": {\"asm\": \"304402201ce7d86f751982ca03ec6958cb476ae19873eb891ddee9bdd01a3e2ccc078e1202204066dbffa8d5873610ab0b71ecebc7c23611195ea2c1867d120daea3cf56feb6[ALL|FORKID] 022537d601fb92fa8535f0f33b4d8b2f104a13cc9aec9f8880ea110f71a215d720\", \"hex\": \"47304402201ce7d86f751982ca03ec6958cb476ae19873eb891ddee9bdd01a3e2ccc078e1202204066dbffa8d5873610ab0b71ecebc7c23611195ea2c1867d120daea3cf56feb64121022537d601fb92fa8535f0f33b4d8b2f104a13cc9aec9f8880ea110f71a215d720\"}, \"sequence\": 4294967295}], \"vout\": [{\"value\": 0.0005, \"n\": 0, \"scriptPubKey\": {\"asm\": \"OP_DUP OP_HASH160 8b80501d56d20c1bf8aa94f25ce9eafade545e0e OP_EQUALVERIFY OP_CHECKSIG\", \"hex\": \"76a9148b80501d56d20c1bf8aa94f25ce9eafade545e0e88ac\", \"reqSigs\": 1, \"type\": \"pubkeyhash\", \"addresses\": [\"bitcoincash:qz9cq5qa2mfqcxlc4220yh8fatadu4z7pcewq0ns8y\"]}}, {\"value\": 0.00741048, \"n\": 1, \"scriptPubKey\": {\"asm\": \"OP_DUP OP_HASH160 b9d148701252f4e28c7e5b8f645b7fb7fb4dba8c OP_EQUALVERIFY OP_CHECKSIG\", \"hex\": \"76a914b9d148701252f4e28c7e5b8f645b7fb7fb4dba8c88ac\", \"reqSigs\": 1, \"type\": \"pubkeyhash\", \"addresses\": [\"bitcoincash:qzuazjrszff0fc5v0edc7ezm07mlknd63s0xuuj6qm\"]}}], \"blockhash\": \"00000000000000000034d8de65ada5fa76639ac43fabb754b9d38d562bf3c181\", \"confirmations\": 26990, \"time\": 1536992106, \"blocktime\": 1536992106}, \"id\": 5}\n"
    ]
  ]
]