[
  [
    [
      "write",
      "{\"jsonrpc\":\"2.0\",\"method\":\"server.version\",\"params\":[\"\",\"1.4\"],\"id\":0}\n"
    ],
    [
      "read",
      "{\"jsonrpc\": \"2.0\", \"result\": [\"ElectrumX 1.9.5\", \"1.4\"], \"id\": 0}\n"
    ],
    [
      "write",
      "{\"jsonrpc\":\"2.0\",\"method\":\"blockchain.scripthash.get_history\",\"params\":[\"e491747d06f7a3ab188c5e5f2d72c09aac37b4ad1e4bd3362115120ae9a74579\"],\"id\":1}\n"
    ],
    [
      "read",
      "{\"jsonrpc\": \"2.0\", \"result\": [{\"tx_hash\": \"a96fd9c0f9c0c5b23c911e6341602cb8d7bf7ce56d285be2bfb59b481831bbc9\", \"height\": 1152334}], \"id\": 1}\n"
    ],
    [
      "write",
      "{\"jsonrpc\":\"2.0\",\"method\":\"blockchain.transaction.get\",\"params\":[\"a96fd9c0f9c0c5b23c911e6341602cb8d7bf7ce56d285be2bfb59b481831bbc9\",true],\"id\":2}\n"
    ],
    [
      "read",
      "{\"jsonrpc\": \"2.0\", \"result\": {\"txid\": \"a96fd9c0f9c0c5b23c911e6341602cb8d7bf7ce56d285be2bfb59b481831bbc9\", \"hash\": \"a96fd9c0f9c0c5b23c911e6341602cb8d7bf7ce56d285be2bfb59b481831bbc9\", \"version\": 1, \"size\": 225, \"vsize\": 225, \"weight\": 900, \"locktime\": 0, \"vin\": [{\"txid\": \"369d517599896a3adfa8cfd32348784f34b08e750d19eed5423254d2505e4052\", \"vout\": 1, \"scriptSig\": {\"asm\": \"30440220499dd233092dafe3ab44453787a5695a58caa131e772f9c5002fc06711f328cf02203e18daddf35866ae0b55966336dc80f47025a46274cc31103d4479e82fb06e92[ALL] 03135c06428aab98978185fc659d9ba1f225ae6080874734061e2d8c25115e41e6\", \"hex\": \"4730440220499dd233092dafe3ab44453787a5695a58caa131e772f9c5002fc06711f328cf02203e18daddf35866ae0b55966336dc80f47025a46274cc31103d4479e82fb06e92012103135c06428aab98978185fc659d9ba1f225ae6080874734061e2d8c25115e41e6\"}, \"sequence\": 4294967295}], \"vout\": [{\"value\": 0.02304516, \"n\": 0, \"scriptPubKey\": {\"asm\": \"OP_DUP OP_HASH160 4b6f96e9daa663cea0b6510545a92b5a3c1fd1bb OP_EQUALVERIFY OP_CHECKSIG\", \"hex\": \"76a9144b6f96e9daa663cea0b6510545a92b5a3c1fd1bb88ac\", \"reqSigs\": 1, \"type\": \"pubkeyhash\", \"addresses\": [\"mnPpepHbGqbK3Zp2PouWMvHK8x9haReYm4\"]}}, {\"value\": 0.00039479, \"n\": 1, \"scriptPubKey\": {\"asm\": \"OP_DUP OP_HASH160 42a68bdfb726b39a2c613b632166dae9d8d8819d OP_EQUALVERIFY OP_CHECKSIG\", \"hex\": \"76a91442a68bdfb726b39a2c613b632166dae9d8d8819d88ac\", \"reqSigs\": 1, \"type\": \"pubkeyhash\", \"addresses\": [\"mmbNQZTFZf8XvPSh8faYM5QwtdvodwSRYE\"]}}], \"hex\": \"010000000152405e50d2543242d5ee190d758eb0344f784823d3cfa8df3a6a899975519d36010000006a4730440220499dd233092dafe3ab44453787a5695a58caa131e772f9c5002fc06711f328cf02203e18daddf35866ae0b55966336dc80f47025a46274cc31103d4479e82fb06e92012103135c06428aab98978185fc659d9ba1f225ae6080874734061e2d8c25115e41e6ffffffff02042a2300000000001976a9144b6f96e9daa663cea0b6510545a92b5a3c1fd1bb88ac379a0000000000001976a91442a68bdfb726b39a2c613b632166dae9d8d8819d88ac00000000\", \"blockhash\": \"000000000000021f20299c936cdd02d60fcf2851ad31e538868066d7c8d0a5d8\", \"confirmations\": 333280, \"time\": 1499594772, \"blocktime\": 1499594772}, \"id\": 2}\n"
    ]
  ]
]